:060000000A128A1100291A
:100200003B214F210313831203138312061811217C
:10021000861817210619222186192821061A33214A
:10022000062906181129850A051A8501080086186D
:1002300017298503851B1D2108000512851205134A
:100240008513080006192229870A071A8701080062
:10025000861928298703871B2E2108000712871279
:10026000071387130800061A3329050807078800B3
:10027000881A8801080083160317880189018316EC
:100280000313850187018801061486140615861557
:100290008616831203138501870188010800031362
:0C02A00083160F178F120F120F140800A6
:04400E00D430FF3F6C
:00000001FF
